:020000040000FA
:10000000082A002099020000DD02000035050000EA
:10001000E1020000E3020000E50200000000000031
:100020000000000000000000000000006D01000062
:10003000E90200000000000011020000710200004F
:10004000EF020000EF020000EF020000EF020000EC
:10005000EF020000EF020000EF020000EF020000DC
:10006000EF020000EF020000EF020000EF020000CC
:10007000EF020000EF020000EF020000EF020000BC
:10008000EF020000EF020000EF020000EF020000AC
:10009000EF020000EF020000EF020000EF0200009C
:1000A000EF020000EF020000EF020000EF0200008C
:1000B000FD200000EF020000EF020000EF02000050
:1000C000EF020000EF020000EF020000EF0200006C
:1000D000EF020000EF020000EF020000EF0200005C
:1000E0000448854600F088F9004800470D310000BB
:1000F000C046C046082A00208546084780F3098884
:100100007047EFF309807047684680F30988064816
:100110000078C00703D1032080F3148870470220C1
:1001200080F3148870470000FC550000064B9C4685
:10013000EFF305831B0605D1EFF31483DB0701D032
:1001400000DF704760470000E9380000064B9C461E
:10015000EFF305831B0605D1EFF31483DB0701D012
:1001600000DF704760470000FD3A0000EFF30980B0
:100170008169891E0978002933D1A6461FC8A44683
:100180007446E0471F4B06CB914224D0083B002920
:1001900010D00CB4203101234B70EFF30983203BC6
:1001A0004B60F0C344464D4656465F46F0C303F0ED
:1001B0003BFF0CBC1A60203253681033F0CBA046D2
:1001C000A946B246BB4683F30988203BF0CB507862
:1001D000002803D01078EFF3098318600223DB4373
:1001E000184710B5084A1268914209D8074C89008F
:1001F0006458A6461FC8A446F047EFF309840FC40D
:1002000010BD000028010020580400005804000020
:1002100003F0F0FD154B06CB914223D0083B0CB404
:10022000203100234B70EFF30983203B4B60F0C378
:1002300044464D4656465F46F0C303F0F5FE0CBCFF
:100240001A60203253681033F0CBA046A946B2465C
:10025000BB4683F30988203BF0CB5078002801D0BF
:10026000107818610223DB431847000028010020A2
:1002700003F092FFCEE7000003F090F803F08CFF4C
:10028000C8E7000000ED00E000080040040800405E
:1002900008080040FF0F240C154E0024012530688B
:1002A00001680909328A0A40738A934200D12C46B8
:1002B000706803682B40634000D10AE0B0680268B0
:1002C000002A03D0F06801688D461047AD4630BF64
:1002D000FDE708488047084800477047FEE7FEE70B
:1002E000FEE7FEE7FEE7FEE7FEE7FEE7FEE7FEE7E6
:1002F00084020000D1050000E1000000FFFFFFFFC5
:1003000030B50B46014600202022012409E00D46AD
:10031000D5409D4205D31D469540491B2546954035
:1003200040191546521E002DF1DC30BD03460B432B
:100330009B0703D009E008C9121F08C0042AFAD29B
:1003400003E00B780370401C491C521EF9D2704721
:10035000D2B201E00270401C491EFBD2704700225D
:10036000F6E710B513460A4604461946FFF7F0FFB4
:10037000204610BD421E5378521C002BFBD10B7837
:100380001370491C521C002BF9D17047421C017894
:10039000401C0029FBD1801A704730B5044600206C
:1003A000034600E05B1C934203D2E05CCD5C401B43
:1003B000F8D030BD30B505460020034600E05B1C98
:1003C000934205D2EC5CC85C201A01D1002CF6D116
:1003D00030BD0321001D401E037812021A43491E3E
:1003E000F9D510467047034603220870000A491CDD
:1003F000521EFAD518467047064C0125064E05E0F8
:10040000E36807CC2B430C3C98471034B442F7D335
:10041000FFF76AFE145A0000345A000030B58C18F9
:100420000278401C13071B0F01D10378401C1209EE
:1004300006D10278401C03E005780D70401C491C71
:100440005B1EF9D101E00B70491C521EFBD1A14289
:10045000E6D3002030BD00000000000010B500F021
:1004600003F8002010BD0000F8B5C40B104D322079
:1004700011C52C6072B60E490E4E14310F460C4851
:10048000083DB04762B6686900280ED1342011C516
:1004900009482C600068686072B639460448083D17
:1004A000B04762B66869002800D00120F8BD00009E
:1004B0005C1800200502000304010020F8B5054681
:1004C000C00B124C0F46322160602160A06072B6F2
:1004D0000E490F4E14310D480091B04762B6606965
:1004E000002810D13320A1C4FF200130206009482A
:1004F0000068606072B605480C3C0099B04762B66F
:100500006069002800D00120F8BD00005C180020C0
:1005100005020003040100200021020602D580210B
:100520008843082100014018014940187047000025
:10053000004000206D2203A1002001F0E3FE00F046
:100540004FF8FEE72866696C6529000010B505487C
:100550007D21C9000068FFF7D3FE03490860002031
:1005600010BD00001401002004010020F8B515465C
:100570000E460746002405E029193819FFF79EFFAB
:10058000FF340134B442F7D30020F8BD30B50D4A32
:10059000002911D011680C4B1C691025AC431C615B
:1005A00041231B061943094C1314A04201D199435E
:1005B00000E01943116030BD1068012189078843AC
:1005C000106030BD0005004000060040006CDC02F9
:1005D00002490148886070470000000000ED00E01B
:1005E000BFF34F8F03490248C860BFF34F8FFEE748
:1005F0000400FA0500ED00E0034882681207FCD50C
:10060000024801627047000000600840006E084028
:1006100000B50346FFF780FF1906074A016801D5B8
:10062000914303E091430122D20711430160184630
:1006300001F09AFC00BD000000000020F0B501466A
:100640004A790C79C97813028D071E4A80782343B2
:10065000AD0F1B4E1168040614D58027B843040162
:10066000A419A3603F339B09E1609B0159183843EB
:100670001160FFF751FFF9050160012D1FD1112114
:1006800089061BE004013351A7197960FFF744FF85
:10069000315B7A68890592028909120C11430122A3
:1006A000920789180160012D02D1121111430160D6
:1006B00004483F3399090268890189180160F0BD37
:1006C000FC1800201801002002490148086070470A
:1006D000C041002018010020012205491204002811
:1006E000086801D0104300E09043086070470000A4
:1006F0000040084010B50C4C0C48A288007882429B
:1007000000D90246002A03D1074900201439087194
:100710008020216801F0B0FC216809182160A188BF
:10072000081AA08010BD000050010020F2580000FF
:1007300010B5064C0020A288216801F05BF8216802
:1007400009182160A188081AA08010BD500100205E
:100750007047000000B50346FFF7DEFE0121890760
:1007600001601A0607490120002A05DA8022934316
:100770004A6A5B005B1C01E04A6A5B009840824366
:100780004A6200BD0040084030B50346FFF7C4FE92
:1007900001251C06AD0701210B4A002C07DA802435
:1007A000A3430468AC4304605800401C06E004689E
:1007B000AC430125ED072C430460580081401162D1
:1007C000506A0843506230BD00400840F8B5044606
:1007D0006F4F704D704E800720D501F013FC3878B4
:1007E000C009FFF7B5FFF888A88038784106890F5F
:1007F00004D001295CD0022975D169E079780B0019
:1008000001F098FC0C070D7113711928712D333B01
:100810004A7101F075F91FE0FFF76CFF70E00020EE
:1008200004E001F003FC5D483DE0012001F0AAF97D
:10083000002858D0F5E7C006C00E54D1B878802102
:10084000084330704006400E012101F097FB01F093
:10085000EDFB55E001F08CF8002844D0DCE7C00641
:10086000C00E40D14C48401C14E001F0DFF90028D4
:1008700039D001F0DBFB4A4815E0C006C00E012864
:1008800031D1707800282ED03879B17888422AD2B8
:10089000444940182860BFE701F08CFA002822D0B4
:1008A00001F0C4FB40480068002829D0804727E0B9
:1008B000C006C00E17D0012815D100F07DF8002821
:1008C0001ED100F07BF800281AD100F073F808E080
:1008D000C006C00E07D100F0ABF8002810D100F020
:1008E000A9F800280CD13878C00904D1F88800286C
:1008F00001D0002000E0802001F050FB0020A88003
:10090000600704D53878C0090DD001F097FB2007A7
:1009100033D53878C00927D0A888317908432CD03E
:10092000FFF7E8FE29E0A8880028F0D0FFF700FFD5
:10093000A8880028EBD138784106890F0ED001290C
:100940000CD1C006C00E09D0012807D100F030F844
:100950000028DCD100F02AF80028D8D1802001F04E
:100960001DFB0020A880D2E73078010605D540069F
:10097000400E3070002101F001FB600602D500201E
:10098000FFF746FE200602D58020FFF741FEF8BDA6
:1009900058010020500100203C010020585900005F
:1009A00050590000100100205459000000207047E9
:1009B00000207047002070470020704710B518488D
:1009C000184A01791278914227D142780146C878B5
:1009D0008B7800021843CB798C7919022143FE2AC7
:1009E0000CD0FF2A19D1002817D1002915D100F009
:1009F00045FE002811D001F019FB0CE000280CD1B5
:100A000001290AD100F032FB002806D00749064828
:100A10000860FFF76FFE012010BD002010BD000030
:100A200058010020F35800007C18002050010020DD
:100A30000020704700207047F8B5354F3D6A3D6291
:100A4000002D2EDA3C6860010DD538680121890639
:100A50000843386001F044FA04F05EF82D4800685D
:100A6000002800D08047E0010BD538680121090635
:100A70000843386028480168002902D0E003C00F0D
:100A80008847A0010DD53868012149060843386020
:100A9000A00301D5214800E021480068002800D0CB
:100AA0008047680004D51F480068002800D08047B0
:100AB000A80521D01C4E00240520001B01218140E7
:100AC000294216D019494968014309D13968C90535
:100AD00006D540088000315800290AD0022007E0DE
:100AE000C1070ED0400880003158002901D00820ED
:100AF0008847641C062CDFD301200D4900070860DD
:100B0000F8BD4008800031580029F2D00420EFE7FA
:100B10000040084000590000FC5800000459000043
:100B2000085900000C59000010590000180100205D
:100B300000E100E000B51149002088621049886199
:100B40000E48803841680204114341600D48016934
:100B50001211914301610C48016842151143016073
:100B6000C103C1600949816009498720886101F09A
:100B7000B7F9012007490007086000BD8002004066
:100B80008003004000060040004008400040002074
:100B90008010004000E100E070B500F00BF9002883
:100BA0002AD01648022404704470154E0320346382
:100BB000307014480546FFF70CFC022808D911498B
:100BC00020461F39FFF70FFC29462046FFF70BFC94
:100BD0000D488021007822460843084901F04CFA6C
:100BE0002846FFF7F6FB316B401A2946FFF7FBFB5F
:100BF000044901200839087370BD0000BC180020AA
:100C000060010020FE190020F458000010B51049C2
:100C10000878022808D003280FD0042810D005280F
:100C200001D10020087010BD0A48C07B282801D0DF
:100C3000A828F8D100F05EFA10BD00F05DFD10BDEF
:100C4000054880210078084300F070FDF5E70000BA
:100C500060010020D7190020F458000010B51D4A8B
:100C6000117800290FD0012910D01B4805290078E0
:100C70001BD0072927D000F059FD1849022008731E
:100C800000F03AFD10BD00F001F910BD13481F3807
:100C9000C07B2A2803D02F2804D0AA28F5D100F041
:100CA00007FB10BD00F094FA10BD012181400C48F3
:100CB0000068014201D0012000E00020094A0AA199
:100CC00001F020FB10BD00201070106B1F28DAD03F
:100CD00010BD000060010020F5580000F61900204A
:100CE00048010020410400002866696C6529000065
:100CF00010B5144C6068E060002801D0012010BDE0
:100D00001148FFF766FB002814D00F480838007B15
:100D1000000604D50D4880210078084308E00A4801
:100D20001F30FFF756FB216B884203D0084800783C
:100D300000F0FCFC044901201731087300F0DCFCD2
:100D4000002010BD60010020DF190020F4580000D1
:100D5000F558000010B5124801798F2001400806AF
:100D600005D50807000F01221204824001E001228C
:100D70008A400C480478802004438C420ED10A48F3
:100D8000006810420AD00948FFF723FB084988424F
:100D900004D10D220549204601F06EF910BD000076
:100DA00058010020F458000048010020F6190020E6
:100DB0005553425370B50C48FFF70BFB0A4C022504
:100DC0001734002808D020461F38007B000608D4BE
:100DD0000648007800F0AAFC257300F08DFC002086
:100DE00070BD012070BD0000DF190020F558000023
:100DF00070B51148FFF7EDFA104C216B884202D80C
:100E00002063032000E0042020700D48802100783A
:100E1000226B08430B4901F02FF907481F300546A4
:100E2000FFF7D7FA216B401A2946FFF7DCFA02498F
:100E300000201731087370BDDF1900206001002009
:100E4000F4580000BC18002010B506480649028876
:100E50000648007800F0CEFC05490863FFF7FEFE67
:100E600010BD0000FA580000BC180020F558000022
:100E70006001002010B50446400702D50020FFF7AE
:100E8000E3FF200701D5FFF7C1FE10BDF8B5704E96
:100E9000316B1F2901D20A4600E01F2200206D4D50
:100EA0006D4B02E01C5C2C54401C9042FAD36B4802
:100EB000802200780127104300901F2970D16548D7
:100EC000FFF787FA664988426AD1281DFFF781FA41
:100ED000604C1F34211DFFF786FA20461738FFF7B4
:100EE00078FA21460831FFF77EFA687B002804D1A2
:100EF000A87B002801D0102801D9277374E0E87B73
:100F00002A283BD020DC1A2847D00EDC0428F4D055
:100F100006DC00283BD00328EFD100F06DFBF8BDC4
:100F20001228EAD100F0AAF8F8BD23283CD006DC4C
:100F30001B282FD01E28E0D100F0CCF8F8BD2528C2
:100F400035D02828D9D13BE09E2836D00EDC552854
:100F5000D3D004DC2F2842D03528CED103E05A2844
:100F60001FD09128C9D100F011FCF8BDA12821D0D3
:100F7000A3284ED0A82823D0AA28BED100F076FA04
:100F80000028F2D0287B00063BD43770F8BD00F073
:100F900007FCF8BD00F0E0FBF8BD00F039FAF8BD41
:100FA0003BE000F003FAFAE700F0EAFAF7E700F0B6
:100FB000C1FAF4E7FFF7F0FDF1E700F071FBEEE7AF
:100FC00000F054FA0028EAD0287B000604D502205D
:100FD000307000F08FF8E2E72248007815E0287CB6
:100FE000800704D40020207300F086FBD7E700F0D0
:100FF0003DFA0028D3D0287B000602D43770376230
:10100000CDE7164880210078084300F08FFB0220CE
:10101000E9E7009800F08AFB6FE7104C009800F0B9
:1010200085FB2078104C0107090F0120000488403F
:1010300021680C4D08432060287800F077FB287861
:10104000874020680743062027603070A7E700002C
:1010500060010020D7190020BC180020F4580000BF
:1010600055534243F55800004C010020024900202E
:1010700008700120704700007C18002010B5FFF7B1
:1010800099FE00281FD0104B002018708021597045
:1010900002219970D97020241C7158719871D871EF
:1010A0000A48016808200A78002A02D01A54491C0C
:1010B00000E01C54401CC0B22428F4D3044924206E
:1010C0000863FFF795FE10BDBC1800200C0100203E
:1010D0006001002010B50548C07CC107044800D05D
:1010E0000121017300F008FB10BD0000D71900209A
:1010F000F6190020F8B5314D314FA969686A00260C
:1011000088420AD3387880210024084300F00EFB7F
:101110002C48067300F0F0FA08E02B4800784100F4
:101120002A48445AE86A844200D30446FFF7E0FDA7
:10113000002800D10024A86A00282DD0002C0ED051
:10114000A96AE8698022411838781043224600F0E5
:1011500093FFA86A0019A862E86A001BE86229697F
:101160006869AA6A4143914203D1AE62696A08186C
:101170006862144808300746FFF72BF9001B394610
:10118000FFF731F9002C06D0E86A002803D10320CC
:1011900028700C480673F8BD002CE0D02969E86A75
:1011A0004018401EFFF7ACF869690246884200D932
:1011B0000A46E969686A03F06FFCC1E76001002034
:1011C000F4580000F61900203F010020F6580000F6
:1011D000F8B5334C0025A169606A884208D33148CC
:1011E0002563007800F0A2FA2F48057300F084FA16
:1011F000FFF77EFD002806D0206B002824D0A06ACF
:10120000002802D010E025631EE02169E06A401842
:10121000401EFFF775F861690246884200D90A4608
:10122000E169606A03F038FC00202049A76A266B58
:1012300008E0E3693A189A5C0B5C9A4201D0256297
:1012400002E0401CB042F4D3266BA06A8119A1626F
:10125000E06A871BE7622269606942438A4203D1E0
:10126000A562616A081860620F4808300546FFF7FA
:10127000B0F8801B2946FFF7B6F8002E0CD0002FDF
:1012800002D02078052807D1206A002805D0002048
:101290000549087300F030FAF8BD0120F8E70000B6
:1012A00060010020F5580000F6190020BC1800204D
:1012B000F8B5384D384FA969686A0026884207D3C7
:1012C00036482E63007800F031FA3E7300F014FACD
:1012D000FFF70EFD002800D12E63296BA86A401885
:1012E0002969884206D9FF2201322DA1002001F090
:1012F00009F8F8BD00202C4905E0AB6A0A5C1B1810
:10130000EC69401CE2542A6B9042F6D3A86A80181C
:10131000A862E96A891AE962002A25D0002914D155
:10132000002812D029694018401EFEF7E9FF6969BC
:101330000446884200D90C462246E969686A03F0EF
:10134000C3FBAE62686A00190DE069692B690A4641
:101350005943814208D1E969686A03F0B5FBAE627E
:101360006969686A401868620B4808300090FFF7A6
:1013700030F82C6B0099001BFFF735F8002CB8D023
:10138000E86A002802D028780528B2D13E7300F020
:10139000B3F9F8BD60010020F6190020F5580000EF
:1013A0002866696C65290000BC18002070B5FFF73D
:1013B00001FD002824D0FFF79BFC002820D0114815
:1013C00000210170062242700F4B81701A7A0824A6
:1013D000D201C270017141718171C1710B481C63EE
:1013E0000546FEF7F6FF082808D9084920461F39A8
:1013F000FEF7F9FF29462046FEF7F5FFFFF7F8FC58
:1014000070BD0000BC18002060010020FE19002003
:1014100070B5FFF7CFFC002820D0FFF769FC00284B
:101420001CD00F480321017000210E4B41701A7A25
:101430000424D2018270C1700B481C630546FEF77C
:10144000C8FF042808D9084920461F39FEF7CBFFFA
:1014500029462046FEF7C7FFFFF7CAFC70BD000013
:10146000BC18002060010020FE190020F8B52D4EA8
:101470002D4FB07C717C0002084340BA040435460D
:10148000E87C761C00020443287D044300207C6233
:10149000B862E87B2F280AD004DC28280BD02A2841
:1014A0001ED104E0A82810D0AA2819D109E0FFF71E
:1014B0001FFC002832D0E87DA97D0002084344BA11
:1014C0000EE0FFF715FC002828D0707D317D00026A
:1014D000084340BA0404E87D00020443287E044324
:1014E000386944430F48FC620830FEF772FF0D4F25
:1014F00001261F3700280DD0A04210D0287B0006FF
:1015000004D50A4880210078084301E008480078A3
:1015100000F00CF93E7300F0EFF80020F8BD012058
:10152000F8BD0000D719002060010020F458000029
:10153000F558000010B5FFF73DFC00281AD0FFF762
:10154000D7FB002816D00C4A0C489169491E0B0E97
:1015500003700B0C43700B0A8370C17011690B0E82
:1015600003710B0C43710B0A8371C1710820106366
:10157000FFF73EFC10BD000060010020BC180020F9
:1015800070B5FFF717FC00282ED0FFF7B1FB00283D
:101590002AD0164800210170417081700821144A38
:1015A000C17091690C240B0E03710B0C43710B0A73
:1015B0008371C1710221017211690B0C43720B0A14
:1015C0008372C1720B4814630546FEF702FF0C28B4
:1015D00008D9084920461F39FEF705FF294620464D
:1015E000FEF701FFFFF704FC70BD0000BC180020EF
:1015F00060010020FE19002070B5FFF7DBFB00281A
:101600002ED01B487021017000211A4B41705A687E
:10161000DD681446AC4306D0062484702824047385
:101620004173DA600AE0002A1BD0134A127B002AB9
:101630001BD005228270202202734173C170017198
:10164000417181710A22C271017241728172C1724B
:101650008173C1730174417412201863FFF7C8FBD2
:1016600070BD022282703A22E6E781700173E4E7DE
:10167000BC18002060010020F619002010B50549B3
:10168000002008600449FEF7AEFE044907200870F8
:10169000012010BD4C010020F6190020600100203F
:1016A00070B5FFF787FB00281DD00F48202202707D
:1016B00000214170C1770D4C0320226320700C483B
:1016C000802100780843084900F0D6FC0948054607
:1016D000FEF77FFE216B401A2946FEF784FE05497E
:1016E00001200839087370BDBC180020600100207B
:1016F000F4580000FE19002010B508490848FEF70C
:1017000072FE0848802100780D220843034900F04A
:10171000B3FC05490520087010BD0000F619002033
:1017200055534253F45800006001002010B50446A0
:1017300000F034FC200605D52107090F0120000424
:10174000884001E00120A04002490A681043086077
:1017500010BD00004801002010B50A48817C0446F5
:101760001F34002904D001202073FFF7C5FF10BDEE
:10177000C07C0549C007C00F486003F0A3F90020F2
:10178000F2E70000D71900206001002010B50349DE
:1017900000200873FFF7B0FF10BD0000F61900200D
:1017A00010B51048FEF715FE0E4C173400280FD068
:1017B00020461F38007B000604D50B4880210078A6
:1017C000084301E009480078FFF7B0FF012004E07A
:1017D000FFF78EFA002803D000202073FFF78CFF5C
:1017E00010BD0000DF190020F4580000F55800007B
:1017F00070470000F7B584B017460E460498FEF710
:101800008BFE0546514804994068514B01430498AA
:1018100000010190C0180090002940D14D48006897
:10182000C0053CD54024402F05D24B4A4BA1002097
:1018300000F068FD3C46009800234068403002E01C
:10184000C15CF1545B1CA342FAD3F079B179000278
:10185000084305D03078000602D53C48012141609C
:101860003C48426904994B0001215B1C99400A43A2
:10187000426142690A42FCD1A9688A00394902D50D
:10188000AA688A43AA602A68920002D52A688A4315
:101890002A600168FF2201321143016050E0049880
:1018A000FEF73AFE05462A49019808582968890139
:1018B000890D441A0098406802902868264AC0178B
:1018C000293226A1401C00F01DFDA74206D2224A63
:1018D00022A12C32002000F015FD3C46BC4200D372
:1018E0003C46002003E00299095C3154401CA042B0
:1018F000F9D317480199405A80058109009840683A
:101900008002000C01430120C007081828600498D9
:10191000002815D10D4D6868002814D0002C12D075
:1019200000200D4A0DA13D3200F0ECFC00200949D9
:1019300068600868C00503D5886A01221043886280
:10194000204607B0F0BD0120EBE7000018010020A1
:10195000FC18002000400840190200002866696C4D
:10196000652900000000002010B5FFF7F3F910BD55
:101970007CB5534B534D1878534CC006C00E02D063
:10198000012875D185E05149D8780E784D49CA783B
:101990001C318978062810D006DC012809D00228DD
:1019A00015D0032864D149E007282FD00F285FD134
:1019B0005FE047482060122069E0002E7ED0002AB8
:1019C00003D0444820600A2061E04348FAE7002E33
:1019D00001D1012A72D0002A03D040480090002093
:1019E0000CE03F48FAE7009A1378002B05D0D37833
:1019F00096781B0233439A180092401C8142F2D120
:101A000000980178002959D020603CE0002E55D084
:101A1000002A03D03348009000200CE03248FAE757
:101A2000009A1378002B05D0D37896781B023343A5
:101A30009A180092401C8142F2D1E1E72B480090B5
:101A4000032901D0002009E001F062FA0DE00099BD
:101A50000A78002A01D051180091401C99788142DF
:101A6000F5D100980178002928D0206000780EE098
:101A700024E01F48007800281FD01E4800902060F6
:101A8000017800291AD0C1788278080210430190A9
:101A900005E001A9684600F031F800280DD0A188C2
:101AA0000198814208D980B21349A0800978491E63
:101AB000084201D10120287101207CBD00207CBD9D
:101AC000580100203C01002050010020ED5800008A
:101AD0005C5900006F5900006E59000092590000D7
:101AE0007159000094590000935900009659000064
:101AF000EE58000070590000F258000000207047B6
:101B000070B51D481D4B0078C106C90E0AD01D4690
:101B10001948143D1A4C6A780079012906D0022927
:101B200028D10AE015480E38186021E0002A21D09B
:101B3000A97888421ED2002016E08F2108400106B5
:101B400005D50607360F01210904B14001E0012146
:101B50008140002A01D100070CD1A868084209D0B1
:101B6000E868084000D001202070000A60701C6006
:101B7000012070BD002070BD5801002050010020E0
:101B80007C18002070B5274B024618781946C0060D
:101B90004988254EC00E04D001282BD0022829D117
:101BA00011E0012926D10224002A05D0012000F0ED
:101BB00051FAF088204304E0002000F04BFAF0884E
:101BC000A043F0802CE01C798F200440200605D52E
:101BD0002007000F01252D04854001E00125A540C7
:101BE0007078002806D0200704D0B068284201D0C1
:101BF000002901D0002070BD002A05D0204600F049
:101C0000CDF9F06828430AE03069284208D120461F
:101C1000FEF7FEFC2046FFF7A7FEF068A843F06041
:101C2000012070BD580100203C010020F8B55A4841
:101C300000260178C906C90E7ED1574F80781C3F17
:101C400000287FD0554801783846C078002901D156
:101C5000012871D0002801D0514C6CE0514C6AE051
:101C60006078022804D0042846D0052861D145E0D8
:101C7000494861798078814239D178702079B8708B
:101C80004A490020484A0B8802E000211154401CB8
:101C90009842FAD301250120B968A840084202D031
:101CA0002846FEF757FD01200004B968A840084205
:101CB00004D0284680210843FEF74CFD6D1C102DF2
:101CC000E9D33B48B8600020F86038613D46012008
:101CD000FEF7FAFCE079400604D5E98801200143CB
:101CE000E98026E0E88840084000E88021E0E078CC
:101CF000A178000208431DE0E6781AE0002E18D112
:101D0000A5788F200540280605D52907090F012051
:101D10000004884001E00120A840B9680143204642
:101D2000B960FEF78BFC2846FEF72EFD284600F032
:101D30001BF92078041901E029E003E0207800284D
:101D40008ED11FE0002501247D7080260120B96816
:101D5000A040084202D02046FEF7FCFC012000040F
:101D6000B968A040084203D020463043FEF7F2FC99
:101D7000641C102CEAD3FD600D483D61B860002062
:101D8000FEF7A2FC044879788078884201D00020D0
:101D9000F8BD0120F8BD000058010020ED580000FA
:101DA000925900007159000010010020F058000005
:101DB00001000100F0B585B0002744480397019762
:101DC00000783E46C006C00E01287DD13F491C392F
:101DD0004878002875D0002002903D4802780846D7
:101DE000C078002A01D101286ED0002801D0394CDA
:101DF00063E0394C61E06078022804D004280DD0FB
:101E0000052858D11CE0314861791C38407881425E
:101E100051D0E078A178000208434DE0A778E67839
:101E20000020019029480179B94244D18078B0421C
:101E300041D1012002902948C15D0391C6553AE085
:101E400022490879B84236D1A0788F2210400090FC
:101E50000006009804D50007000F01252D0400E0BE
:101E6000012585408878B04214D118481C38816813
:101E700029438160C168A943C1602046FEF7DEFBAB
:101E80000098FEF781FC009800F06EF80198284356
:101E9000019010E0039886420DD1019828420AD1A2
:101EA0000A481C388168A9438160C168A943C160A0
:101EB0000098FEF74FFC20780419207800289AD16A
:101EC000029805B0F0BDFFE70020FAE758010020B6
:101ED000ED580000925900007159000010010020D7
:101EE00010B51C4B1A48186002201B4A4107840099
:101EF0001151401C1428FAD3002058601449174B84
:101F00004020C03903C31860114840385860002091
:101F1000083BFEF701FB19885A6889059202890976
:101F2000120C11430122D207891801605968D20BA3
:101F300089028918090C416009480168802211430F
:101F40000160BF21890001620649416210BD0000A5
:101F5000C04100201801002000400020FC18002093
:101F600000400840030000C000B5FEF7D5FA01228A
:101F7000016812071143016000BD0000002909D16A
:101F800005490A68D209D2010A600A688023184309
:101F900002430A60704700000040084030B5034625
:101FA000FEF7BAFA590606D00168002920DA49007E
:101FB000490801601CE01C06104A0121002C0BDAC4
:101FC0008024A34354695D006D1CA9400C435461F7
:101FD00054690C42FCD107E054695D00A9400C43F0
:101FE000546154690C42FCD1590601D1044A516034
:101FF0000122016852071143016030BD00400840D2
:102000001801002010B5082202490020FFF7F2FB5A
:1020100010BD00005801002010B5034841680120A0
:10202000400201F061F810BD4C00002010B5002204
:102030001146802000F020F810BD000010B50348C4
:10204000034902780020FFF7D5FB10BDF2580000CD
:102050007C18002006494A150128086805D010435D
:10206000086004490020C8607047904308607047CA
:102070000040084000040040F7B582B00E46074615
:10208000FEF74AFA04468020874320680028FCDBDC
:102090002068800E80062060174839010818C16842
:1020A000049A8902090C920592091143226811438E
:1020B0002160C068019004980025C01C8008009031
:1020C00008E03046FEF785F9AA0001996D1C88509A
:1020D0000098361DA842F4D8002F05D02068800053
:1020E00002D5002005B0F0BD20680121C9070843D2
:1020F00020600498F6E70000FC18002010B50120CD
:10210000024900070860FFF787FF10BD80E100E08B
:10211000002070470FB410B503A9044B044A02987D
:1021200000F048F810BC08BC04B01847052E0000A9
:102130005800002030B47446641E2578641CAB42FD
:1021400000D21D46635D5B00E31830BC184702E017
:1021500008C8121F08C1002AFAD170477047002032
:1021600001E001C1121F002AFBD1704710B5002AFF
:1021700006DA52005208D21DD308DB00102203E019
:10218000D21C93089B000C22002B02D09C188C427E
:1021900001D9012010BD821883604118026041609E
:1021A000C91AD018884202D810600246F9E7002008
:1021B000106010BDFFB58DB00446002506E025284F
:1021C0000AD0109A0F999047641C6D1C2078002843
:1021D000F5D1284611B0F0BD00270121484A0097EB
:1021E00000E00743641C23780846203B98401042D7
:1021F000F7D120782E2817D1042007436078641C7B
:102200002A280CD10E98641C02C800910E900BE095
:1022100000990A22514330394018641C00902078FC
:10222000014630390929F3D920780028D1D0642813
:1022300008D0692806D075281ED0109A0F999047AB
:102240006D1C5BE00A200E99019001C90E910028D7
:1022500002DA40422D2102E0390504D52B216A46DD
:102260001172012103E0F90704D02021F7E70BAE3A
:102270000B910DE00021FAE70A200E99019001C9A7
:102280000E91F7E70199FEF73BF83031761E317079
:102290000028F7D103A8801B20300190780701D5D2
:1022A000009801E0012000900199884201DD401A68
:1022B00000E000200027009006E002A8109AC05D10
:1022C0000F9990476D1C7F1C0B988742F5DB04E04B
:1022D000109A30200F9990476D1C0099481E00906D
:1022E0000029F5DC05E03078109A761C0F999047AC
:1022F0006D1C0199481E01900029F4DC641C65E7FF
:1023000009280100F8B516460F4600281BD1EFF347
:102310001080C507ED0F72B600231A4619461846FD
:1023200000F066F8040003D13146384600F0ACF8FE
:10233000002D00D162B6002C05D1EFF30380C0065A
:1023400001D102F009FEF8BD10B524220D490E4856
:10235000FDF7ECFF02F0D6FE0C4802F0CDFE02F0D5
:102360001DFD0B49012208600A4952020A600A4A0F
:10237000012111600949400A08600A4908480860BB
:1023800010BD00004C5600006C0F0020F12600002C
:1023900094010020700100207401002078010020C9
:1023A0006C0D00207C010020044841788078814237
:1023B00001D001207047002070470000DC000020A1
:1023C00010B500F073FA10BD10B500F06FFA10BD33
:1023D0000120704710B541210448FDF7C0FF0348B4
:1023E000002139300172417210BD00000F2A002017
:1023F000FFB581B01D4616460F461A48FDF7C6FFC9
:10240000441C0198002802D03946FDF7A8FF00209F
:10241000002E00D03080002D00D028701149C91F37
:10242000C87900281BD0BC4201D8224602E0E01B3C
:1024300041183A460B4C0198C91D3934002804D084
:10244000607A237A000218433080002E02D001986F
:10245000FDF76CFF002D01D0A07A2870012005B097
:10246000F0BD00000F2A002002488079002800D02B
:1024700001207047082A002002488079002800D0F7
:10248000012070478C190020F3B581B00746FDF795
:102490007DFF124D441C41263146E81DFDF75FFFCC
:1024A000412C02D83946224602E0413CE11932462D
:1024B000E81DFDF73BFF094C029840342072000AEA
:1024C000607200F068F8002801D0012004E000F0FC
:1024D00064F8002800D00220A072FEBD082A002067
:1024E0000149887170470000082A00207047704732
:1024F00070470000F8B50E4617462021C04301F092
:10250000C9F90446002512E0705D082101F0C2F906
:10251000000644400A490820002C02DA64004C40BE
:1025200000E06400401E0006000EF5D16D1CBD42A7
:10253000EADB2021204601F0ADF9C043F8BD0000E0
:10254000B71DC10470B514460D460646FF2A07D8CC
:10255000FF22DD320AA10020FFF7D4FE022070BD69
:1025600000F036FB002801D00E2070BD2A4621461F
:10257000304600F03BFC0028F7D01C2070BD000066
:102580002866696C65290000C1060007000F002954
:1025900000DB09307047012070470020704710B5FC
:1025A00000231A4600F0A6F9002800D0012010BD33
:1025B00010B502F01BFB012800D0002010BD000068
:1025C000F8B50127154EFF033078FD003C46012881
:1025D00006D0FF22373212A10020FFF793FE0AE057
:1025E000B078002809D0FF223D320DA10020FFF76E
:1025F00089FE022030700220F8BD204600F014F859
:10260000002803D0022030701E20F8BDE419AC422F
:10261000F3D30120B0700020F8BD0000B800002006
:102620002866696C65290000F8B52C4E04463078A0
:10263000012805D0FE222AA10020FFF763FE1AE040
:102640000127FF0339462046FDF75AFE02250029DF
:1026500002D0FF22073209E0F07800280DD0F1689F
:10266000B0684018A04208D0FF220E321CA1002002
:10267000FFF748FE35700220F8BD1F2080020121BF
:10268000844201D2002000E00846002823D0F170E7
:1026900001208004F760B460BC4201D3844201D3BE
:1026A0001F200DE0FFF779FF01462220002907D007
:1026B000BC4205D1FF22384601323946FFF742FFBE
:1026C000222803D00028D7D03570F8BD204600F06E
:1026D0007FFA0028F9D035701D20F8BDB800002021
:1026E0002866696C652900000120C00370477047A7
:1026F000F8B51E4615460C46074602F047FD2B4826
:10270000017F03290ED0022C0DD0002C1DD0012CEE
:1027100008D10168A94205D1407F002831D00320AB
:1027200002F062F8F8BD0068A842FBD1304602F022
:102730000FFB0446304602F011FB0646384601F016
:10274000FDFE03462246314617E0384601F0F6FE0C
:102750000328E7D0304602F0F9FA8007E2D4384681
:1027600001F0ECFE0746304602F0F2FA044630462D
:1027700002F0F4FA01463B462246284601F0FCFFEF
:10278000F8BD24220A490948FDF7D0FD01F03EFFBB
:1027900008488178012903D14178022900D181704C
:1027A0000248054F2430BC4600DFF8BD6C0F002006
:1027B0004C560000DC000020E13C0000F7B51B4E49
:1027C0000446B07F5502174600280BD129460198D0
:1027D00001F086FE032802D0214601F091FFB07F70
:1027E000002810D07068A0420DD8B068A0420BD06D
:1027F000A04208D9F068401C00D1F460F068A04203
:1028000000D20446F460FEBDB0692A468018B0616B
:10281000E019B060F07F002803D0002001F0E4FF51
:10282000FEBD2046019901F02BFFFEBD6C0F00207C
:10283000F0B585B018A1096804910378002104AAB5
:10284000545C9C4226D0491C0329F9D313A10A6881
:102850008E6896464A68CD6800239446C25C7146ED
:1028600064466F46039552C711466139192911D93B
:10287000202A01D2052A0DD100216C46675C9742BF
:1028800008D0491C1029F9D35B1C0B2BE6D301207F
:1028900005B0F0BD0020FBE7E5002000222A2B2C2C
:1028A0002E2F3A3B3C3D3E3F5B5C5D7C70B50E4D50
:1028B00000202C78002C0FD000212970A978002945
:1028C00001D000F057FA022C05D06978032902D014
:1028D000002800D1212070BDFF223D3203A100203D
:1028E000FFF710FD022070BD8C0000202866696C87
:1028F000652900003EB51D460446302901D301205C
:1029000000E00020402217A1FFF7FCFC21460C222A
:1029100020316846FDF70AFD1449019888420BD121
:1029200013490098884201D102203EBD1049FC396C
:10293000884215D101203EBD204602F031F9002821
:102940000AD12078432805D16078462802D1A078A2
:10295000472803D0002D03D003203EBD04203EBDF8
:1029600000203EBD2866696C652900000199969794
:102970008F9E939BFFB581B007460024049825469F
:10298000002815D00A98002812D004990020086069
:102990000A9906460860FFF7FEFD002818D00120BE
:1029A000C003022F06D0032F0CD0042F0CD017E049
:1029B0006A2239E00399002904D00299814201D0AA
:1029C00018240EE0064601E00526F603194818E033
:1029D000FFF7E3FD002803D0012F07D0032F0DD010
:1029E0001924FFF7F5FC00280DD00EE0039800280D
:1029F000ECD002980028E9D01724F2E70E48866848
:102A00000E480568EDE7012F04D0002C04D02046C5
:102A100005B0F0BD1924FAE7002D04D00498066033
:102A20000A980560F3E7A62205A10020FFF76AFCDB
:102A30000220EDE748560000040000202856000060
:102A40002866696C6529000010B50D4C20780028B7
:102A500006D0B5220BA10020FFF754FC022010BDC8
:102A6000FF2230210948FDF773FC0120207000206F
:102A700060706060A060E060A070E07010BD000059
:102A80008C0000202866696C65290000F008002091
:102A9000F7B54A4F0546387884B01446012807D068
:102AA000CA2247A10020FFF72DFC022007B0F0BD8D
:102AB000F878002803D1BD600120FD60F870B87877
:102AC000002857D1F9688D4201D1012000E0002093
:102AD0000919F96000282FD0786830210E1AA64213
:102AE00000D916463849324608180599FDF71EFCEC
:102AF0007868A41B801978600599AD19891905912A
:102B000030282AD316D00020EC222DA1FFF7FAFBA3
:102B100001232D48BA687968FFF7ECFE787001A8A8
:102B2000009002AB01227878B968FFF723FF0028F4
:102B300027D103E00120E7E70320EFE7B87801267B
:102B4000FF22704006321EA1FFF7DCFB019800F067
:102B5000C1F8002815D1BE7002E0B878002813D063
:102B600019497A68B86800F03FF8002809D1B878A8
:102B7000002809D022462846059900F035F800289B
:102B800002D00321397091E77878012804D0022817
:102B900005D003280FD105E01F20800204E00520A6
:102BA000C00301E00948C0682919814203D302200B
:102BB000387010207AE7002078E700008C000020B1
:102BC0002866696C65290000F008002004000020D8
:102BD00010B5EFF31081CC07E40F72B6FDF73EFCA1
:102BE000002C00D162B610BDF7B5364F0446787898
:102BF00000251646012805D07B2233A10020FFF7CF
:102C000081FB09E07869844208D283222EA100204A
:102C1000FFF778FB022078700220FEBDF8780028CC
:102C200009D1204601F096FB050002D00220787001
:102C300045E00120F870234FBA6878688118A142F6
:102C400014D8B9698B6822499847050003D01D49FB
:102C50000220487033E0FF221D48B968FDF778FB79
:102C60000120B870B968786840187860002E24D0C8
:102C70003969F8684018A04204D8204601F06AFB80
:102C80000500E4D10F4948688968201A0F1ABE422E
:102C900000D237460E493A4608180199FDF746FB1F
:102CA000002F08D000200749E41988700198C01946
:102CB000F61B0190BFE70120F5E702484461284672
:102CC000FEBD00009C0000202866696C652900009C
:102CD0002009002070B5234D04466878002801D0F3
:102CE00047222CE0002C29D06068002826D0A0685C
:102CF000002823D0E068002820D0206900281DD0BB
:102D0000606900281AD0A069002817D00121FF228D
:102D100089021548FDF71CFB0126AE700020E87003
:102D20006860A860E8602861AC61686120688047DD
:102D3000040009D12878002807D010E04D220BA10B
:102D40000020FFF7DFFA022070BDA8690069804704
:102D5000040004D0A86940688047204670BD6E70AA
:102D6000FBE700009C000020200900202866696C19
:102D70006529000070B5194C00256078002802D044
:102D8000012807D010E0CB2215A10020FFF7BAFAE6
:102D9000022070BDA078002806D1A069124983687E
:102DA000A268606898470546A06940688047064663
:102DB0000121FF2289020C48FDF7CAFA01200021F7
:102DC000A070E1706160A160E1602161616161708A
:102DD000002E01D0304670BD284670BD9C000020FA
:102DE0002866696C652900002009002010B5EFF302
:102DF0001083DC07E40F72B6FDF7B8FB002C00D19E
:102E000062B610BD00B50346C1B20020FDF7F4FB69
:102E1000184600BD04484068C007C1170348491C54
:102E200001600068C0B2704700E10840080100205E
:102E30000020704708B51A4801681A4A114301601A
:102E40001948426A80210A434262826A0A438262C6
:102E5000154A403A536B0B43536302680A430260BE
:102E6000002000F033F8002000F024F8002000F0EB
:102E700039F80E4841684215114341604168021516
:102E8000114341600168D20411430160416849085F
:102E90004900416006480090401E0090FCD108BDEA
:102EA0000002004000E80C008010004000E00840F4
:102EB0001027000004494A050128086802D0104381
:102EC000086070479043FBE700E1084004494A1559
:102ED0000128486802D01043486070479043FBE7E0
:102EE00000E1084004490A150128486802D010434F
:102EF000486070479043FBE700E108400348002129
:102F000041608160C1600161704700002C000020B9
:102F1000004870474102002070B5FFF7EFFF1F48DF
:102F200000F054FC01F0BCF91C4831212030FDF7C1
:102F300016FA1A481A492030FDF71CFA174819A149
:102F40002030FDF717FA15495E3108463E38FDF787
:102F500011FA1249A03108468038FDF70BFA0F48E4
:102F600000242030FDF712FA0C4AC1B24800A93201
:102F7000801C107003205070022000231546893DEC
:102F800008E02E5D1654401CC0B21354401C641C53
:102F9000C0B2E4B28C42F4D370BD000098010020AE
:102FA00040000020303030300000000010B5134CDD
:102FB0002078002806D0612211A10020FFF7A2F995
:102FC000022010BD002211461046FDF7BFFA00286E
:102FD00001D01A2010BD00206070A070E070A060C9
:102FE000E0602071206160610121A061C903064891
:102FF000FDF7B5F901202070002010BDB8000020B9
:103000002866696C6529000018400020F7B5044661
:1030100031480127FF030078FD00012807D0FF2277
:1030200079322EA10020FFF76DF90220FEBDBC42CF
:1030300001D3AC4201D31F20FEBDFFF7AEFA00283A
:1030400048D02E1B0299301F884201D90A4600E061
:10305000321F214801998069FFF74CFA01461E484A
:10306000816101200004844208D21E49E01B081837
:10307000029A0199FDF75AF90020FEBD0298201826
:10308000A84227D1019880192038827FC37F12047B
:103090001B061A43437F057F1802284302430E4D47
:1030A000914201D02320FEBD2046019A0299FFF7EC
:1030B0009DFE002801D01C20FEBD0120C003024659
:1030C0000849FFF73FFA0446FFF718FF0120687030
:1030D0002046FEBD2220FEBDB80000202866696C97
:1030E000652900001840002002468800064910B5F6
:1030F00040188038C06F002804D0114600F0C2FE8E
:1031000000F0B0FE10BD0000DC070020B0B50121CA
:103110001748FDF73BFA184C16482060FFF78AFE67
:1031200001F0FAFB15A02168FEF7F4FFFFF780FE1F
:10313000002813D1FFF76EFE00280FD1184CA068AD
:1031400001F02EFD002809D0FFF796F9002805D1DF
:103150001449A068886003C8FCF7CEFFFCF7D4FFD1
:10316000144F114A11491248BC4600DF0020B0BD7F
:10317000006CDC02001BB700140100206C7063358A
:1031800031753638206D736420626C2C20636F7249
:103190006520636C6F636B3A2564487A0D0A000002
:1031A0000400002000ED00E0300300200A200300AE
:1031B000D1310000614000000122044900280A705A
:1031C00001D0022000E00120487070474C00002030
:1031D0000125FFF751F9002803D0444F6420BC4675
:1031E00000DF434FBC4600DF424E70600020FFF717
:1031F0006DFE0020FFF75EFE0020FFF773FEFFF775
:103200008BFE01F01DFC012001F0C6FE002001F044
:1032100013FC0020F070B06001203A4FB0700B2416
:103220000023354A35493648BC4600DF384F002276
:1032300035493648BC4600DF364FBC4600DF0746FE
:10324000800501D5FDF7F8FBF80734D05A2001F0CE
:10325000BBFEF078012807D1B068002802D0401EDC
:10326000B06001D10020F070B078002821D0012892
:103270000FD0032817D004281DD1F07800281AD1C8
:10328000002C01D0641E16D1002001F0D5FB0020D7
:1032900007E0002C01D0641E0DD1012001F0CCFB11
:1032A0000320B07007E001F0BFFB002803D002202C
:1032B000F7E7FDF795F9B807B8D530780028B5D00D
:1032C0007078012801D00228B0D1012D01D001254C
:1032D00000E00025002D01D0012801D0012000E0F0
:1032E000002030702846FFF7FDFD9FE7FD39000004
:1032F000914200004C000020A80200200B88000032
:103300003946000015420000FFFF000003020000E4
:10331000BD3A0000093A000010B5FFF795FB10BD5B
:1033200010B5FF2104460231FDF719F800F0C6FA86
:1033300000202070FFF788FB10BD0000012805D099
:10334000022805D003280BD0C92202E0BD2200E0EC
:10335000C12204A10020FEF7D5FFFDF741F9FEE7E9
:10336000C522F6E72866696C65290000FEE70000C3
:103370000748016807484161002181610721016117
:103380000548016AFF221206114301624017704787
:10339000F855000000E000E000ED00E070477047E5
:1033A000FFB583B0054604980E9C281800900020B5
:1033B000844F2060F878844E00281BD00020F870DD
:1033C000701E0278011D0698FCF7B0FF701E007891
:1033D000069941180691216808182060786871786C
:1033E0003278000C0902000411430843711E097869
:1033F00040187860CAE028780A2813D00D2811D028
:103400003A287DD0397800297BD0FFF7BDF8020734
:103410006D497878491E0B5C120F1A430A54401C00
:103420007870ADE0684A0021521E137808465B1D93
:103430009C4604E0135C5918401CC9B2C0B28445D4
:10344000F8D8002901D00426A5E0B878002844D196
:103450000120B870707831780002084340BA3070AB
:10346000010A717001905848401EC078002806D0AB
:10347000012833D0022833D004282ED14EE05249FF
:103480002522491E8818FCF751FF7868019A010C23
:1034900009041143814203D00120F87002267AE02A
:1034A0004948401E0278011D0698FCF73FFF464838
:1034B0000699401E0078411806912168081820607E
:1034C000786871783278000C0902000411430843CF
:1034D0003D49491E09784018786056E001265AE0B7
:1034E00021680C98FF22411A0698FCF731FF2068EA
:1034F0007968091A0D9801600098411B049801E051
:103500002AE033E0411A059801602F48401E0179F6
:10351000407909030001014379601AE021680C98A1
:10352000FF22411A0698FCF713FF20687968091AF0
:103530000D9801600098411B0498411A059801609C
:103540002148401E417902790802104340BA000424
:103550007860022007B0F0BD1B482521401EFCF713
:10356000FEFE002038707870B8700EE0797825295A
:1035700025D2FFF709F8144900017A78491E8854CA
:10358000387800281BD0002038706D1C00988542C8
:1035900000D030E7002621680C98FF22411A0698D7
:1035A000FCF7D6FE20687968091A0D98016000982A
:1035B000411B0498411A059801603046CAE7012072
:1035C000E2E70000D4000020210D0020F7B50446FA
:1035D000012084B08004424F0290387816460128BA
:1035E00005D0A1223FA10020FEF78CFE41E0FF2183
:1035F0000131C801009001912046FCF781FE0225AF
:10360000002901D0AA222FE00198864205D3014665
:103610003046FCF775FE002901D0B12224E0204697
:103620000099FCF76DFE00988919814201D9B822F2
:103630001AE0B87800280DD1F878002808D0B968C9
:103640008C4203D3F8680818A04203D8C6220BE0C6
:10365000C02209E03979384600290DD07A693969E4
:103660008918A14208D0CE221EA10020FEF74AFEF2
:103670003D70022007B0F0BD1F218902A7198C42BE
:1036800003D2002F01D0002100E00121002910D039
:1036900013480121017146610461324620460599B3
:1036A000FFF7B4FC222807D00028E3D00C490D70A6
:1036B000E0E705701C20DDE731462046059AFFF75C
:1036C00095FB002801D00648F3E70298874204D30F
:1036D000FFF714FC0249012048700020CAE70000EF
:1036E000B80000202866696C65290000FF200130C1
:1036F000704710B50B4605214002C903012441184B
:10370000640222461846FCF711FE204610BD000058
:1037100070B514460E460546001901214002890283
:10372000884206D90B4A0CA10020FEF7EBFD0020D1
:1037300070BD012149023046FCF711FE002D06D173
:1037400007480849006942013046FCF7EFFD600276
:1037500070BD0000670200002866696C65290000E2
:10376000EC0000205C14002010B5012464020B461C
:10377000002801D0002010BD224603491846FCF75E
:10378000D5FD204610BD00009C11002010B50B4651
:1037900001214002C903012441186402224618464F
:1037A000FCF7C4FD204610BD10B5012464020B4691
:1037B000002801D0002010BD224603491846FCF71E
:1037C000B5FD204610BD00009C0F0020FF210160C8
:1037D00041608160C160704710B5084654022146BF
:1037E000FCF7BDFD204610BD70B5234D0024687860
:1037F000A978E443884201D0012000E00020FF22A4
:10380000F0321EA1FEF77EFD6878022804D0002861
:1038100016D0012818D020E01A48FF24007FF53484
:1038200000281AD0012809D0022816D0032814D065
:10383000154A12A10020FEF765FD0EE0134C0CE0C6
:10384000A878022808D008E0A878022802D000282A
:1038500002D002E00E4C00E00024601C05D10A4AB0
:1038600006A11032FEF74EFD0024A868A04201D93F
:10387000012070BD002070BDDC0000202866696C4E
:10388000652900006C0F002001020000204E00009E
:10389000C409000070B5034600200246012509E076
:1038A000DC0704D08E1A2C46761EB44020435B08F9
:1038B000521CD2B28A42F3D370BD000010B525214C
:1038C0000748FCF74CFD064825212530FCF747FD4D
:1038D000044800214160017041708170C17010BDC9
:1038E000200D0020D40000200146EFF31080C20715
:1038F000D20F72B60868002801D003680B60002A56
:1039000000D162B67047000070B50D4600280FD098
:103910000849094C884204D222680146104600F04A
:10392000D1FA20684570054800F0FBF800F090FBE4
:1039300070BD0000FFFF0000280100202C190020AE
:103940007047000070B51B4EF068002831D0B08A77
:10395000401EB082002526E0A068002808D06168DB
:1039600041606068002802D0A16881606560A56040
:1039700010482146183800F0CDFAA08AB08260784D
:10398000042804D10C49E08A09884018A08201204B
:10399000607020210855E068F060E068002801D0E0
:1039A0000661E5602561B08A002802D1F468002C28
:1039B000D2D170BD441900203001002070B5040040
:1039C0000ED00C4DA17828680126827891420BD93F
:1039D00000F0BEFA28684670204600F039FB70BD42
:1039E000054800F09EF8F8E766702146024800F0AE
:1039F00091FA70BD280100202C19002010B5032178
:103A0000FFF782FF10BD000001480068408B70473F
:103A10002801002010B50446008B084320836278FB
:103A2000618B062A15D0052A12D1084210D00A4609
:103A30000240628388432083204600F0ABFA0120D5
:103A400060700221202001552146044800F062FAEE
:103A500010BD0A468243EDD010BD00002C19002095
:103A60000246880070B5144940188038C46F002C95
:103A70001DD0208B104320836178658B062917D0D9
:103A8000052914D1284212D0294601406183A84358
:103A90002083204600F07EFA208B0221A843208359
:103AA00001206070202001552046FFF787FF70BD80
:103AB00029468143EBD070BDDC07002070B503467A
:103AC0000D480D460468002A208B08D01946814312
:103AD00001D0062109E098432083022070BD0146F1
:103AE000194001D06183F6E7052163832846FFF77B
:103AF0000BFF012070BD000028010020814202D38D
:103B000042688A4201D801207047EFF31082D20741
:103B1000D20F72B603680B60016000D162B600205C
:103B2000704701464068002342684A600A78022ACA
:103B300005D0012A03D0032A01D0436070474268B0
:103B4000002A01D0916043608360704770B50446DD
:103B500015460020207001226270A1706060A06094
:103B6000E0602061A082E0822083234660832033CE
:103B700018705870608C002803D10448FFF7B4FE19
:103B8000A0622946204600F005F870BD20070020FD
:103B90007047000030B5428C920803D10E4A12885B
:103BA0001204920C836A92009B185A0700D51B1FBF
:103BB00001221206403BDA63002299631446950005
:103BC000521C5C510E2AFAD3C2691A624362C16266
:103BD000806A0249016030BDF4550000A52E5AE20A
:103BE0000349044A0968C88212888018888270478D
:103BF000280100203001002010B50848016808485D
:103C00008A8A0088CB8A101AD21880B28A8201046C
:103C100002D40421FFF778FE10BD00002801002027
:103C200030010020F8B50446406800260F46002801
:103C300005D06078022818D0A08900282FD0A0894C
:103C4000E18988423ED2208980000019076172B65E
:103C5000A089401CA08162B62089401C80B22081CE
:103C6000E189884200D12681F8BD66702046FFF7C1
:103C700058FF0546203006702189E8698900091936
:103C8000086172B6A089401CA08162B62089401CE0
:103C900080B22081E18988420AD1268108E020464D
:103CA000FFF73FFF0546C06904210760202041550A
:103CB00001206870284600F06DF92946034800F09D
:103CC00029F9F8BD0320FFF739FBF8BD2C190020B6
:103CD0000321017000214170418041608160704783
:103CE000F8B504464088002804D0254EA168326803
:103CF000914201D0FF20F8BD401E0004000C6080FE
:103D00003CD131686078887061680127002928D02B
:103D10002046FFF706FF05460521203001702846A2
:103D200000F038F96780A560A878607015483168A0
:103D300040688A788078824201D328460AE0114898
:103D400000F0E8F829460F4800F0E4F830684770C2
:103D50006F7011E0FFF732FE3168002020310870EB
:103D60000CE0084949688A783168824206D90548DA
:103D700000F0D0F8306847700020EBE70020F8BD75
:103D8000280100202C19002070B50E46184D04465D
:103D900041882868002907D0A168814208D160883D
:103DA000401C6080002070BDA06080786070F6E7E5
:103DB000002E0FD062788078824203D28870A0688B
:103DC00000F0D0F86068002806D02046296800F08E
:103DD000A1F808E0012070BD286860602968002013
:103DE00048602868846009213046FFF78DFDF1E7BF
:103DF0002801002070B51848012102685170006840
:103E000000F0A6F8154D6C7813E0E0004119486801
:103E10000278002A17D0012A1AD000F0EBF8E878CF
:103E2000641C844200D1002472B6A878401EA87099
:103E300062B6A8780028E8D16C700948FFF771FED7
:103E400000F006F970BD098989B2FFF7E3FDE6E7E6
:103E50008968FFF7E7FEE2E728010020B8070020A5
:103E60002C19002005480178002902D00121417059
:103E70007047012002490007486070472001002078
:103E800000ED00E0F8B50E4EF778B41C354672B67A
:103E9000B278BA4207D2521C22702A78531CBB4215
:103EA00000D100232B7062B6F378934204D9D2007C
:103EB000921991605060F8BD0220FFF73FFAF8BDFB
:103EC000B807002010B5124AD368002B17D013464C
:103ED0009B8A04E0002C12D02246A48AE318D468FE
:103EE0008B42F7D3C460D0600261C468002C00D05C
:103EF0002061591A8182908A401A908210BD002454
:103F0000C460D060C91A02619182848210BD000031
:103F10004419002030B502780023022A03D0012A78
:103F200001D0032A00D101238C7800E010464268BA
:103F3000002A02D09578A542F8D24A604160002B51
:103F400004D0002A00D09160886030BD0020FBE7DB
:103F500003494A684260002282604860704700005E
:103F60002C19002010B583680446002B05D1607819
:103F700001280CD1064B03E09B6818780028FBD081
:103F8000204600F01DF821461846FFF7C3FF10BD7C
:103F90002C19002010B5016900290FD0C268CA6031
:103FA000C3680022002B07D08B8A848A1B198B825E
:103FB000C3681961C26000E08A82026110BD00001E
:103FC0008168002907D042684A604168002901D011
:103FD000806888607047064906E04A68824202D1DC
:103FE00040684860704711460029F6D170470000CC
:103FF0002C19002010B5416800290ED0FFF791FD63
:104000000446FFF7C7FF01206070032120200155FF
:1040100021460448FFF77EFF10BD4188491C4180BE
:1040200010BD00002C19002010B507480068416A37
:10403000806A814203D300680449884202D001208B
:10404000FFF77CF910BD000028010020A52E5AE2E0
:104050000249486002214170704700002801002099
:10406000F7B51546394A002004463749128802E060
:104070008300CC50401C9042FAD33548302201884E
:104080003448FEF773F8344801210088C90780B22C
:104090004218324801683248FEF768F83148082271
:1040A000018831480068FEF761F8304FFF26FE7046
:1040B0007C842F4A00213846FFF748FD2D48042113
:1040C000017044602C480170C46004618482786A85
:1040D0002030FCF713F829482A490760022078703D
:1040E0002748047044700978C170FFF751FD2648D5
:1040F000016A320411430162C169026A5202920EDE
:1041000092061143C161FFF733F920490028086086
:1041100012DB82081E49920051180A688307DB0EE1
:104120009E4032430A60C206D20E012191404011E6
:10413000184A80008018016000232A4601990098DF
:1041400000F068F8FEBD0000DC070020F05500001C
:104150000856000050060020F45500000C560000E0
:1041600020070020125600005C0000205C1900208F
:104170006D3300002C190020441900202801002074
:10418000B80700201056000000ED00E024010020D8
:1041900000E400E000E100E010B50B4801210268F6
:1041A00051700068FFF7D4FEFFF7CAFB07480168AB
:1041B000491C0160FFF7C6FB00F00CF80448FFF74C
:1041C000B0FCFFF745FF10BD2801002030010020A2
:1041D0002C19002070B50D4D2868002815D0A8882E
:1041E0000B4E401EA8800AE0E088FFF7D8F8A088B0
:1041F000A8802068286021463068FFF77FFCA888E7
:10420000002802D12C68002CEED170BD34010020B2
:104210005C000020FFB5080681B01E4617460C461C
:10422000000E00D14C1C1648FFF75EFB051E25D082
:104230002002000CAF626884EE61E1B22846019A68
:10424000FFF784FC104801240E49028806E0A00014
:1042500040188038C06F002803D0641C9442F6D9FF
:104260000024A00040188038C567EC702846FFF78E
:10427000A5FB0648006820300470204605B0F0BD5C
:1042800050060020DC070020F05500002801002027
:1042900002480068002800D0C0787047280100203C
:1042A000F8B50024284F25462646212127483C60A2
:1042B000FCF755F8254821212130FCF750F8234818
:1042C00009214230FCF74BF83E71204F1F48A100F6
:1042D0005E384158781900F03DFC4019641CE4B286
:1042E000C5B2042CF2D37E550025184F2C46213739
:1042F0001648A1004E384158781900F02BFC40199F
:10430000641CE4B2C5B2042CF2D3104C0E497E55A5
:10431000423414392046096800F01CFCC0B226540F
:104320000B48042201680848FCF700F806483021D1
:104330000671401D01703221417034218170362197
:10434000C1700671F8BD000040000020F601002099
:1043500000000020F1B5354DA869416900988847F3
:104360000746A8698169009888470446002F07D04E
:10437000002C05D00126B602B74209D8012008E07A
:10438000FF2223322AA10020FDF7BCFF0220F8BD46
:104390000020FF22283226A1FDF7B4FF394630461F
:1043A000FBF7AEFF002909D00020FF22293220A10F
:1043B000FDF7A8FFBC4203D3012002E00120F4E78F
:1043C0000020FF222A321AA1FDF79CFF3946204621
:1043D000FBF796FF00291FD00020FF222B3214A1EB
:1043E000FDF790FF21460098FBF78AFF0098401ADE
:1043F000E8602C616860B44200D33446AC60297830
:1044000000290BD0A969C9688847040006D0A869AB
:10441000406880472046F8BD0120DEE7FF220648BD
:10442000A968FBF795FF0020F8BD00009C00002064
:104430002866696C652900002009002010B50A4C27
:104440002078002808D000F061F86068C16807484B
:1044500088470021217010BDC12205A10020FDF771
:1044600051FF022010BD000060000020EC0700207A
:104470002866696C65290000B0B5144C05462078A3
:10448000002801D0862202E0022D06D38C2210A142
:104490000020FDF737FF0220B0BD0F4FBC4600DF04
:1044A000FF21A06005310D48FBF759FF01200749A6
:1044B000207028010C314018606041680748884727
:1044C0000028E9D003212170B0BD00006000002069
:1044D0002866696C6529000091420000EC07002005
:1044E000F8B5094D0E460746002420012A583146EA
:1044F00038469047002801D02046F8BD641CE4B23D
:10450000022CF2D30320F8BD6C00002080B5074FC9
:10451000BC4600DF06498968884201D1012000E0DD
:104520000020632203A1FDF7EDFE80BD9142000053
:10453000600000202866696C65290000014610B5FE
:10454000083103220C4608A0FBF734FF002807D0EF
:104550000322214605A0FBF72DFF002801D00320F0
:1045600010BD012010BD000042494E0048455800D2
:1045700070B5154D064628780C46012806D0A522B0
:1045800012A10020FDF7BEFE022070BDFFF7BEFFA6
:1045900068682246836831460E48984704461028CA
:1045A00007D0112C07D0002C05D0032028702046FE
:1045B00070BD0220FAE72878012800D00020B3223D
:1045C00002A1FDF79FFEF2E7600000202866696CFB
:1045D00065290000EC07002080B5084FBC4600DFCD
:1045E00007494968884201D1012000E00020FF22EC
:1045F000603204A1FDF786FE80BD000091420000FC
:10460000DC0000202866696C6529000080B5054F34
:1046100002490348BC4600DF80BD0000FFFF0000E8
:10462000900F0020893D0000884203D3904201D8BA
:1046300001207047002070470D4F00240320BC4626
:1046400000DF0C4D0C4FBC4600DF0C4F0220BC4677
:10465000696800DF03212046FBF752FE641CE4B2C8
:104660000029EFD10120BC46696800DFEAE70000BD
:10467000E13B00004C000020F93B0000613A0000E3
:10468000F8B51C4D1646E87F0C46002805D01A4A9E
:104690001A490020FDF736FEF8BDF0051DD00020B8
:1046A000154A1649121DFDF72DFE134A687F521D4B
:1046B0001249FDF727FE31462046FFF759FF0D4C02
:1046C0000027203410280AD011280ED0277029691D
:1046D0008919296100F088F8F8BD0120E0E7FFF7AB
:1046E000ADFE6F770121E97701E000200121217003
:1046F000EDE700006C0F0020B1020000044600004E
:1047000070B51A4D0646687F0C46002810D0002070
:10471000174A1849FDF7F6FD601C00D00120144A25
:104720001449521CFDF7EEFD6868401C02D002E0FF
:104730000120EDE76C600D492031C878032800D1D5
:10474000CE706868A04202D1C878B04201D0032080
:1047500008E03046FFF790FE002803D10121AC604D
:104760006977A97700F040F870BD00006C0F002059
:10477000760200000446000070B5174C257F032D1B
:1047800003D02568002D06D006E0144A14A10020AD
:10479000FDF7B8FD70BD20606068401C00D161600D
:1047A0000D482030C578032D00D1C370656995424E
:1047B00004D9A569954201D9032009E04D1C02D016
:1047C00065688D42F8D1C0789842F5D100206261C9
:1047D00000F00AF870BD00006C0F00202B020000F2
:1047E0002866696C65290000FEB50446102803D0D0
:1047F000112C01D0012000E00020424A42A1FDF727
:1048000081FD434D287F03280AD02A68002A0ED054
:10481000A969686981420AD3002808D0012107E00C
:10482000384A39A1121D0020FDF76CFDFEBD0021A4
:1048300037482030417083780193002A02D1C27832
:10484000032A01D0012200E000220092002904D0B6
:104850000078002801D0012600E00026E87F00282B
:1048600003D0002901D0012000E000200290E86878
:104870000027401C10D06868401C00D00120214A4D
:1048800021A12032FDF73EFD6968E868401A2969D8
:104890004002814200D901270320002C01D0287753
:1048A0001DE0019900290AD0002F01D00624F6E767
:1048B00000990029F3D0002EF1D10424EFE70299EA
:1048C0000029ECD1002E01D0022003E0009800283E
:1048D00002D00120287711E0287F03280BD1687FC0
:1048E000002806D0FFF7AAFD00216977002C00D12F
:1048F0000446084804700198002897D100F02CFB6A
:10490000FEBD0000D60200002866696C6529000023
:104910006C0F0020DC000020F0B52848E12502687B
:1049200085B06D0281210A43026042680A434260F9
:1049300023484168FF22D202114341602148816B24
:10494000C908C9008163826B01210A4382631C4844
:1049500080300163881E009002900F241A481B4F7C
:1049600001940390611C049169430398FBF7C8FC10
:10497000461E174886420FD80499701C414303987D
:10498000FBF7BEFC854201D2401B00E0281A0099CB
:10499000884201D2694651C1641E042CE2D20198BA
:1049A000B86202983862002078600948B8603868B8
:1049B00005210843386005B0F0BD0000001000403C
:1049C00000020040C06F0840006CDC02006008403C
:1049D000FFFF000010B50F4C2078002807D0002002
:1049E0002070FDF795FB002808D01B2010BD822207
:1049F00009A10020FDF786FC022010BD6078002888
:104A000003D1FDF7C8FD002801D0002010BD2120F2
:104A100010BD0000B80000202866696C6529000000
:104A200010B500F01BF810BD02484078002800D0F7
:104A3000012070473C01002010B5FBF74DFE10BD72
:104A400010B505490020C870FFF7EAFFFCF7D0FE5B
:104A5000FCF770F810BD00003C010020B0B5094F14
:104A6000BC4600DF084C0A4F60600848BC4600DFC7
:104A7000FDF76AFC00206070A0700649A060086025
:104A8000B0BD000091420000DC000020900F00202B
:104A9000D13C00006401002070B514460D46064666
:104AA000FFF79AFD064B1868002807D00020FEF794
:104AB00083FB22462946304600F0F0FA70BD000024
:104AC0006401002070470000F8B515460E46074601
:104AD000FFF782FD0D480068002816D00C49002021
:104AE0000C4C8860207F03280FD00020FEF764FB69
:104AF0002A463146384600F019FC207F032804D0AE
:104B00002A4631463846FDF759FEF8BD64010020BB
:104B1000DC0000206C0F00200548074A017805489A
:104B2000C180002101704170C160826001617047E5
:104B3000EC5800003C0100200100010010B5EFF32B
:104B40001080C407E40F72B6FDF744FC002C00D1BE
:104B500062B610BD70B50D460446090E00F014F89B
:104B600006462802010EA01900F00EF88619280446
:104B7000010EA01900F008F88619E9B2A01900F09A
:104B800003F8801970BD00000B09044A0907D35CC3
:104B90000370090F515C41700220704714560000E9
:104BA000F8B50546002004240090224629466846B0
:104BB000FBF7BCFB0C4E009872693169FFF734FDBE
:104BC00000280FD0291904226846FBF7AFFBF268D2
:104BD000B1680098FFF728FD002803D0241D0C2C95
:104BE000F0D90120F8BD00000400002001783A2926
:104BF0000AD1007A302809D0322807D0332805D0CE
:104C0000342803D0352801D0002070470120704798
:104C1000FFB583B00398FDF70BFEFF229A3241A146
:104C2000FDF770FB41480190417A007A0902014387
:104C30003E48C01E407B414306984018401EFBF78B
:104C40005FFB054606980027394E002819D000243E
:104C5000681EF76800900AE0F168481C82B2354887
:104C600000F04CFCF068401CF0600098641C84422A
:104C7000F2D3314A2F48F16800F040FCF068401C44
:104C8000F0603069202802D3FF22AF321FE04101DB
:104C90002A4A401C8C183061202229492046FBF703
:104CA00045FB0B2220460399FBF740FB21461C31B4
:104CB0000698FBF798FB380C2075000A6075A776FC
:104CC000380AE076B168102908D3FF22BD3215A159
:104CD0000020FDF717FB002007B0F0BD08460C22AE
:104CE0005043164A174BC03A1350174B87187B6036
:104CF000049B002B00D013500598002800D078604A
:104D00000198491C427A037A1002084A1843D21EBD
:104D1000527B50436843B860B1603078401C3070BB
:104D20002046D9E72866696C652900009F0F00209E
:104D3000EC0000209C110020FFFF00005C1400200C
:104D4000CC580000D9370000D9550000C07A704710
:104D500010B51C30FBF73DFB10BD000010B504463C
:104D6000FFF7F6FF002812D0E07EA17E040209487A
:104D70000C43017BC07A0902014307484069FBF7F5
:104D8000BFFA0449A41E497B6143081810BD0020E6
:104D9000C04310BD9C0F0020EC00002070B50F49EF
:104DA000087DCA7C0402087BC97A050214430D43BE
:104DB000002C01D06C430FE008482030FBF709FBC2
:104DC000002802D06843044606E00024FF228E3209
:104DD00003A12046FDF796FA204670BD9C0F0020E7
:104DE0002866696C65290000F3B501260F46760236
:104DF00081B031464D48FBF7B2FA31464C48FBF7DB
:104E0000AEFA4C4C0025C0214B48E560FBF7A7FAF1
:104E100049487100C030FBF7A2FA25612570A560F2
:104E2000464865616060324645494048FBF77EFA76
:104E30003E4E307BF27A0102012000041143381803
:104E4000F61CFBF75DFA0446F71E797B3D484843A4
:104E5000A04208D9FF225B323BA10020FDF752FAA5
:104E60007C7B38480BE03A484143A14208D2FF22FC
:104E70005E3235A10020FDF745FA7C7B344844437F
:104E80002A49012000042031844204D33574280AC1
:104E90007074204603E03474200A70740020FBF71D
:104EA000A2FA797B2046FBF72BFA29490002113937
:104EB0004018040CFC82302226491F48FBF736FAC2
:104EC00060021D491B4C4861086204206561A060B6
:104ED00000200C224243521892686369401CD21889
:104EE00062610428F5D31A4A294667321048E56002
:104EF00000F004FBE168164A491C6E320C48E16080
:104F000000F0FCFAE06825610B4D401C1149E0609F
:104F1000C035284620223031FBF708FA28460B22FC
:104F20000199FBF703FA01202061FEBD9C0F0020D0
:104F30009C110020EC0000209C130020EF260000B4
:104F40007C5600005A1000002866696C6529000034
:104F500091FF00007C58000080B5FFF757FBFDF77C
:104F600023FA002805D105484178022901D1012101
:104F70008170044F0248BC4600DF80BDDC00002089
:104F8000900F0020E13C000010B5FFF725FB014821
:104F9000007810BDDC00002010B50446FFF71CFBB4
:104FA000FDF7D2F90649074A002C04D002204870C8
:104FB0008870012002E0002048708870106010BDE9
:104FC000DC00002064010020F8B50646FFF704FB72
:104FD000FFF71CFBFDF7E8F9002815D0FEF704FCED
:104FE000274C05462748A168814201D28819A06054
:104FF000264F2548BC4600DF002D09D0A0786678F2
:105000006070012807D104E0204F1F48BC4600DF34
:10501000F8BD0221A17021461C4F044600251A4804
:10502000BC468D6000DF0127002E19D0012E17D05D
:10503000022E15D1144E243E307F032805D0304671
:10504000203087700020FFF7CFFB307F032812D07D
:105050000020FF2208320EA1FDF754F900F07AF883
:105060000D4E002C09D0012C07D0022CD0D1FDF719
:105070006BF93760F8BD0120EBE73560F8BD000043
:10508000DC00002060EA0000900F0020E13C0000FE
:105090002866696C6529000064010020F7B582B0BC
:1050A00004461546002651020398FBF758F90020E4
:1050B00031460C2251430F4A8B189B685B0AC31878
:1050C000009384420CD39C420AD21F1BAF4200D3F0
:1050D0002F465358201A3A4603999847E419ED1B76
:1050E000002D04D0761CF6B20098102EE0D305B047
:1050F000F0BD00009C13002001494860704700008B
:10510000EC00002010B51F2109030948FFF76CFED1
:1051100001235B040022074907A0FFF779FD032361
:10512000DB030022074908A0FFF772FD10BD000055
:10513000E55500008D37000046575F44415441203B
:1051400042494E00F336000043465F44415441203B
:1051500042494E0010B5FDF71EFA002805D0FFF7B2
:1051600013FF002801D1FBF73BFAFDF716FA0028E0
:1051700005D0FDF779F9002801D0FBF731FA024894
:105180000168491C016010BDE800002070B50C46A4
:105190000546FDF74DFE002803D1FDF73BFE002834
:1051A00001D0012200E00022002A03D1FDF710F90E
:1051B00000280ED0002C0DD0012C0AD10B223B4927
:1051C0002846FBF7EAF8002803D1FFF7B7FCFFF702
:1051D000C3FE70BD0B2236492846FBF7DEF80028D7
:1051E00041D00B2233A12846FBF7D7F8002842D044
:1051F0000B2233A12846FBF7D0F800283CD00B2225
:1052000032A12846FBF7C9F8002838D00B2232A17A
:105210002846FBF7C2F80028D9D00B2231A1284636
:10522000FBF7BBF8002830D00B2231A12846FBF752
:10523000B4F800282AD00B2230A12846FBF7ADF89D
:10524000002826D00B2230A12846FBF7A6F800281C
:105250002AD00B222FA12846FBF79FF80028B8D1AF
:10526000FDF746F9B3E7FDF798F90028AFD0012024
:10527000FDF736F9ABE70120FDF738F9A7E7B122D2
:1052800027A10020FDF73EF870BD0120FDF72FF9A2
:105290009DE7254C206800688047206800698047AA
:1052A00020684068804792E70120D9E770560000E7
:1052B000DA5500004155544F5F525354434647005E
:1052C000484152445F52535443464700415353456B
:1052D00052542020414354005245465245534820E1
:1052E000414354004155544F5F4F4E2043464700C1
:1052F0004155544F5F4F4646434647004552415340
:1053000045202020414354004F56464C5F4F4E20CD
:10531000434647004F56464C5F4F4646434647007C
:105320002866696C6529000028560000F7B5044618
:10533000002682B0154630461CE00C2132464A4316
:105340000F4952189168490A4118009184420CD3C0
:105350008C420AD20F1BAF4200D32F465368201A4B
:105360003A4603999847E419ED1B002D06D0761CA8
:105370000098F6B2034989688E42DED305B0F0BDCD
:105380009C130020EC000020F7B5054604462035AC
:10539000287C84B01646302801D3606B32E030217F
:1053A0000F1AB74200D3174600193A460599FAF783
:1053B000BDFF287CC019C1B22974302902D2002057
:1053C00007B0F0BD05980023C0190590F61B1A46DA
:1053D0002046FDF78FFA00281FD002A90022009175
:1053E00001AB1146FDF7C6FA0028E9D101986063C8
:1053F0002A7C2146FDF74CFB0028E1D1297C606B1B
:105400004018606332460599FDF742FB0028D7D16A
:10541000606B801960631120D2E71920D0E700008B
:10542000F7B58118012349029B0288B0994207D938
:105430000522D2012DA10020FCF764FF0BB0F0BDC6
:1054400041024B09510204914909069129495A0127
:1054500051180291039109990191002801D0002669
:105460003BE0012639E0019970014418039900904E
:105470004518202221462846FAF78FFF00282BD016
:10548000214628460B22FAF788FF002811D0002079
:10549000194F05907F6823462A4620460221B847C7
:1054A00001990098085CE52805D00598002807D0E8
:1054B00012E00120ECE72A4623461046012108E0CD
:1054C0002046FDF7B5F9002806D023462A4618469F
:1054D0000021094C6468A047761C06988642C2D316
:1054E000049A09990298FAF721FFA7E72866696CE0
:1054F000652900005C140020EC00002010B54B0072
:105500000124591C6402A14206D3FF223E3204A1A9
:105510000020FCF7F7FE10BDC254120A425410BD21
:105520002866696C65290000F0B587B0002416462E
:105530000F460546039404940594FF2004AA03A98A
:1055400001300292019100906B1C05AA3146384649
:10555000FDF726FF00280DD0022814D001281FD007
:10556000042829D0052801D00628E6D1052825D011
:10557000012024E0049A002A27D0691C0398FDF733
:1055800087FA044621E0049A002A05D0691C039892
:10559000FDF77EFA040018D10598361A3F18CCE7BB
:1055A000049A002A04D0691C0398FDF771FA044696
:1055B000002C0AD1102408E0122406E00020FF226B
:1055C000623203A1FCF79EFE1324204607B0F0BD13
:1055D0002866696C65290000704753544152545F36
:1055E00049464143544D53445F424F4F54000000DD
:1055F0000400000088000401BFD401000100000085
:105600001027000000000000CC00000098000000FF
:1056100004000000303132333435363738396162B6
:10562000636465660000000000000000AD2F00000C
:10563000D5490000CD35000029260000C125000015
:10564000ED360000E92600002C56000000000000A6
:10565000FFFFFFFFFFFFFFFFFFFFFFFF0000000056
:105660000000000000000000000000000000000337
:10567000415353455254202054585400EB3C904D14
:1056800053443053342E31000208010002200050F0
:105690001FF80100010001000000000000000000F0
:1056A000000029741902274441504C494E4B2D44A7
:1056B0004E444641543136202020FAB8C007052018
:1056C000018ED0BC0010B8C0078ED8BE6D00E80BAC
:1056D00000EBFEB40EB700B307CD10C38A04460832
:1056E000C07405E8EDFFEBF4C3504C454153452031
:1056F00052454D4F5645205448452041524D204D6E
:10570000424544204441504C494E4B205553422081
:1057100044455649434520414E44205245424F4F4F
:1057200054205448452053595354454D2E2E0000C3
:105730000000000000000000000000000000000069
:105740000000000000000000000000000000000059
:105750000000000000000000000000000000000049
:105760000000000000000000000000000000000039
:105770000000000000000000000000000000000029
:105780000000000000000000000000000000000019
:105790000000000000000000000000000000000009
:1057A00000000000000000000000000000000000F9
:1057B00000000000000000000000000000000000E9
:1057C00000000000000000000000000000000000D9
:1057D00000000000000000000000000000000000C9
:1057E00000000000000000000000000000000000B9
:1057F00000000000000000000000000000000000A9
:105800000000000000000000000000000000000098
:105810000000000000000000000000000000000088
:105820000000000000000000000000000000000078
:105830000000000000000000000000000000000068
:105840000000000000000000000000000000000058
:105850000000000000000000000000000000000048
:105860000000000000000000000000000000000038
:105870000000000000000000000055AAA937000049
:10588000D95500000002000069370000D95500001A
:105890000000000069370000D9550000000000003A
:1058A0001137000021540000000400000000000037
:1058B00000000000000000280000000000000000C0
:1058C0000000418EBB32000000000000000000001C
:1058D000000000000000000100000000764876484B
:1058E0000000DC837648000000000000000000009B
:1058F00001004000020240000002400000000000E1
:105900000000000000000000000000000000000097
:10591000CD07000000000000750E00000000000030
:105920000000000000000000000000000000000077
:105930000000000000000000000000000000000067
:105940000000000000000000000000000000000057
:105950000000000000000000000000001201100123
:1059600000000040280D04020010010203010000A5
:10597000000902200001010080FA09040000020869
:10598000065004070582024000000705020240009D
:105990000000000000000403090408034100520055
:1059A0004D0024034400410050004C0069006E008B
:1059B0006B00200043004D005300490053002D00B0
:1059C0004400410050001A03300030003000310024
:1059D0004100300030003000300030003000300036
:1059E00010035500530042005F004D005300430078
:1059F00030303030000000004D424544202020204F
:105A00005646532020202020202020202020202007
:105A1000302E3100345A00000000002098010000B0
:105A20001C0400007C5A00009801002080BE000089
:105A30005E21000043F05952803240428053800280
:105A400006112000600020051E01999697021F0193
:105A5000339F2533193333895333C12333B125336E
:105A600021333329550313C92302680173E02E83C0
:105A7000F859087D1BB700C041002000FFFFFFFF61
:105A8000FFFFFFFFFFFFFFFFFFFFFFFFFFFFFFFF26
:105A9000FFFFFFFFFFFFFFFFFFFFFFFFFFFFFFFF16
:105AA000FFFFFFFFFFFFFFFFFFFFFFFFFFFFFFFF06
:105AB000FFFFFFFFFFFFFFFFFFFFFFFFFFFFFFFFF6
:04000005000000E116
:00000001FF
